:02000002B0004C
:1040000000400B0002950B00000006000C000502AA
:084010000401B41400000000DB
:044018007C830B009A
:10401C0010F8012B11F8013B012A28BF9A42F7D066
:10402C00D01A7047034613F8012B002AFBD1181A3B
:10403C000138704709480A49884208B505D0094A31
:10404C00824202D0121A04F0A3F80748074A002152
:10405C00121A04F0C5F8014808BD00BF70E5032032
:10406C0064940B00E0E50320E0E50320F0E7032077
:10407C0070B5074E074C03F095FBA41BA408002554
:10408C00AC4200D170BD56F8043B98470135F7E7B8
:10409C001C940B0040940B0000F0A6B808B500F07F
:1040AC00C3F8BDE8084003F035BB01F023BE01F0B6
:1040BC0021BE01F027BE000008B5034A03490C20BD
:1040CC0001F060FDFEE700BF89570B0090830B00E9
:1040DC000078B0FA80F040097047012303707047F4
:1040EC002DE9F041124D134FDFF84C800446461871
:1040FC00B4421BD014F8013B312B0CD10C4800F00E
:10410C00FDFF002341460A482B6103F04AFA084898
:10411C0001F062FAECE7302BEAD1284600F0EEFF12
:10412C00284601F059FA01233B70E1E7BDE8F08124
:10413C002CE6032028E60320A5830B0070B590B075
:10414C0002F004FB244A254C01460BA803F0DEF8D0
:10415C000BA802F004FC02F0F9FA214A01460BA864
:10416C0003F0D4F80BA802F0FAFB03A802F059FDF7
:10417C000FCC06AD0FC506AD0FCD26680BAC0FC42A
:10418C000BA8266002F0E4F804460BA8DCB902F098
:10419C00FBF80094ADF80A0002230DF10A0203218A
:1041AC0003A802F033FD02F0D1FA002203A902F0B9
:1041BC007AFB02F0CBFA0B4902F019FB039801F0E1
:1041CC00A1FD10B070BD02F0E1F80023009302468F
:1041DC0010230721E4E700BFA4E60320ECE503204D
:1041EC009CE60320B2830B0010B50E4C204600F069
:1041FC007FFD204600F082FF204601F0EDF9012101
:10420C00204600F026FD4FF001130120636103F0FE
:10421C0036FAFFF793FF02F099FABDE8104002F06E
:10422C00DFBA00BF2CE6032010B52A488CB000F092
:10423C0088FD02F08BFA02F0F5FA002839D0264AF4
:10424C001378002B35D10121184611701946FF2225
:10425C00019303F024FA41F2883003F00DFA1F4960
:10426C0003A801F0CCFE059A019B013207A903A813
:10427C0001F0EBFE059A019B1948013207A902F0E7
:10428C0043F903A801F070FE164C23787BB102F0C1
:10429C005DFA02F081FE02F059FA02F0F1FBFFF731
:1042AC004DFF02F053FA02F09BFA002323700CB07E
:1042BC0010BD02F04BFA02F0B5FA0028E4D1064B1F
:1042CC001A78002AE0D0FF2118700246084603F045
:1042DC00E6F9D9E72CE6032070E50320C1830B0037
:1042EC00A4E6032028E603202DE9F0433C4B3D4A8D
:1042FC009A60002499B0C3E900443B4D3B4E032027
:10430C0001F050FC2146012001F05CFC38492846A4
:10431C0002F0BCF83749304602F0B8F80FCE04AFC3
:10432C00A8460FC7B8E80F00D6F80090C7F8009061
:10433C0009AE0FC604AF0FCFD8F800E0C6F800E006
:10434C000EAE0FC6DFF8C8C0C6F8009009AFCCE9B6
:10435C0000440FCF13AE0FC6274FC6F800E0274B13
:10436C00019313AE0EAB60464FF004022449029445
:10437C00009602F0A1FE2349384602F087F80FCFD1
:10438C000DF1100CACE80F000FCDD7F800E0D8F809
:10439C000080CCF800E009AF0FC7C7F8008004AF6D
:1043AC000FCF0EAD0FC5DFF86CC0C5F800E009AF3C
:1043BC00CCE900440FCF35460FC56046C5F80080E8
:1043CC0011490096CDE901440EAB4FF0100202F0FA
:1043DC0073FE0E48072119B0BDE8F04300F05ABC3B
:1043EC00E0E503200000FFFFECE5032000E60320DE
:1043FC00C9830B00EE830B0014E60320ED400B0089
:10440C0013840B0016840B003B840B002CE603205A
:10441C009CE60320A4E60320704710B51021044647
:10442C00FFF747FE204610BD0EB403B503AB0021C9
:10443C0053F8042B019303F0DCF802B05DF804EBA5
:10444C0003B0704773B5044608462279A36832B1AD
:10445C00A3B90B4902B0BDE8704003F08FB8094A0C
:10446C00267B094D0949647B012E18BF2946CDE9ED
:10447C0000140749FFF7D8FF02B070BD054AEFE7FB
:10448C004F840B00C8830B004B840B0047840B003C
:10449C0065840B003E840B002DE9F04F85B01F4660
:1044AC00BDF93880BDF83C30A8EB0209A7EB010A36
:1044BC00B9F1000FB8BFC9F10009BAF1000FB8BFCC
:1044CC00CAF1000AD14583460C46154604DD3A462E
:1044DC002C4647460D469046BC4205DD2A464546CD
:1044EC00904622463C4617463E1BB2B20092A8EBC1
:1044FC00050282EAE271A1EBE271C6F3C03202FA64
:10450C0086F64545B4BF01224FF0FF32019176107B
:10451C000292BC421CDCDBF800200393D145D2F89C
:10452C001880C7BF294622462A4621465846C0470E
:10453C00019A039BB61AB1B236B2002E05DA029A72
:10454C001544009A56182DB236B2013424B2E0E765
:10455C0005B0BDE8F08F704710B404682469A44618
:10456C005DF8044B604730B40468BDF80850029500
:10457C00A46BA44630BC604730B40468BDF8085046
:10458C000295E46BA44630BC604770B4BDF90C5086
:10459C00BDF810600468CDE90356246CA44670BCC9
:1045AC0060472DE9F3411C460368BDF820805B6928
:1045BC0005461646013C34440F4624B298472B68F6
:1045CC00CDF8048000949C6A28463B463246394616
:1045DC00A0472B68DB6A284602B0BDE8F0411847BB
:1045EC002DE9F3411D460368BDF820805B69044644
:1045FC0017460E469847CDE9007822686B1E334467
:10460C00956A20461BB23A463146A8472368DB6AB6
:10461C00204602B0BDE8F04118472DE9F3471E468D
:10462C000368BDF928905B69BDF82C800C460546E3
:10463C00174698472644B4422B680BDACDF8008015
:10464C00D3F820A021464B463A4628460134D047A1
:10465C0024B2F0E7DB6A284602B0BDE8F047184701
:10466C0013B502680191B0F90E100091146CB0F9F9
:10467C000C3000221146A04702B010BD2DE9F743C3
:10468C0099421646BDF92870BDF82C9002688046F8
:10469C000D461C4613D1BE42C8BF3346CDF82890F8
:1046AC00C4BF3E461F467B1C946B9B1B1BB2324601
:1046BC0029464046A44603B0BDE8F0436047BE42DD
:1046CC000AD19942C2BF0B4625461C46631CCDF845
:1046DC002890D46B5B1BE9E753699847CDE90079C7
:1046EC00D8F8003040469F6A324623462946B847E0
:1046FC00D8F80030DB6A404603B0BDE8F0431847F9
:10470C002DE9F3471D460368BDF82C805B69BDF9A4
:10471C00289004460F46164698472368CDF800802B
:10472C00D3F824A032462B4639462046D04723687E
:10473C00CDF8008009F1FF323244D3F824A0394679
:10474C002B46204612B2D0472368CDF80080D3F810
:10475C0020A032464B4639462046D0476B1ED9190D
:10476C002368CDF800801D6A20464B46324609B2BC
:10477C00A8472368DB6A204602B0BDE8F04718471B
:10478C00704701F00303B0F90A208376C907B0F92A
:10479C00083059BF8381C2818281C3817047000078
:1047AC0030B54281C281074A074D018100248181C5
:1047BC004FF0FF31C0E905124460056004610477D5
:1047CC00046230BD010100018C890B002DE9F04F12
:1047DC0089B0CDE902120268BDF948800493BDF995
:1047EC004C3052690593BDF850A00446904718F11F
:1047FC0007024FF0000648BF08F10E024FEAE20B29
:10480C0001963546039B019ABDF904109A18059B35
:10481C008B4212B227DD049B33444FF00009069300
:10482C000FFA89F080451FFA89F117DD4F0705BF94
:10483C00069BC0106D001D5C18BFEDB22B060AD58F
:10484C00029B206807921944836909B21F462046CF
:10485C005346B847079A09F10109E1E7019B013377
:10486C0001935E44CEE72368DB6A204609B0BDE8BD
:10487C00F04F18472DE9F04F2DED028B91B01646F5
:10488C00026ABDF874809DF878509DF87C400391C5
:10489C001F46BDF8703004938346002A40F0C58053
:1048AC00B0F90C308B4240F34C81B0F90E30B3426E
:1048BC0040F34781062313FB0513002B40F3418182
:1048CC0006EBC403002B40F33C81037F1BB9AF2FD5
:1048DC0084BF0137FFB2DBF8003058465B6998475C
:1048EC000522099200220592984A07EB8703D318F8
:1048FC000C93B3B20693059A0C9B9B5C0793ABB2DB
:10490C000B93BDF80C300893039B02FB05F919FAC5
:10491C0083F90FFA89F308EE103A08230A93039BE4
:10492C0002EB030A4FF000090FFA8AFA079ADBF838
:10493C000030D20752D5012D1FFA89F23ED1012C3D
:10494C003CD19B6906991F46049B0A4412B25146FE
:10495C005846B84709F101034FFA83F9079B5B08E6
:10496C0007930A9B013B13F0FF030A93DED1059FCB
:10497C0001377BB20593099B013B13F0FF030993AD
:10498C00B9D1049B43450FD0012DDBF800303BD14E
:10499C00012C39D10899CDF8008005311C6A3246BA
:1049AC00082309B25846A047DBF80030DB6A5846AA
:1049BC0011B0BDEC028BBDE8F04F1847069914FB03
:1049CC0002F20A44049901910094DB6918EE101A62
:1049DC001F4612B22B465846B847BBE7049A4245CD
:1049EC00B8D0012D1FFA89F207D1012C05D19B6992
:1049FC0006991F460A444346A8E70699CDF8048059
:104A0C0014FB02F20A44DFE70B9ACDF8048002EBA8
:104A1C008201089AE4000A4411460094DC6932468B
:104A2C002B4609B25846A047BEE7137A5168126864
:104A3C000B92FF1AFFB201EBC70331F83720069235
:104A4C009A780992DA780C92012D93F9052093F952
:104A5C0006A00A9201D8012C57D9BDF92830089329
:104A6C000FFA8AF30793DBF8003058465B699847D6
:104A7C00B3B24FF000080E931AFA86F3C1464746BC
:104A8C000F930C9B9F428FD2079B0E9A3B4403FBC8
:104A9C000423002205920F9A1BB202EB070A08EEC0
:104AAC00103A0FFA8AFA4346099A0599914241D273
:104ABC005A1CD2B25B070D9207D1069B06990B9A32
:104ACC0001339BB212F80190069319F0800F12D0AB
:104ADC00012DDBF80030BDF80C101AD1012C18D1C7
:104AEC000A9A9B691144059A11441E465246049B2E
:104AFC0009B25846B047059E0136F3B24FEA490950
:104B0C0005935FFA89F90D9BCEE70023CDE90733B6
:104B1C00A9E70598089A024402FB0511049ACDE90D
:104B2C000042DB6918EE102A1E4609B22B46584685
:104B3C00B047E0E7099B013798445FFA88F8FFB269
:104B4C009FE711B0BDEC028BBDE8F08F82840B00A7
:104B5C00F0B5026A85B004460B46002A34D10A2906
:104B6C0008D1438A0282427E03EBC2036382012096
:104B7C0005B0F0BD0D29FAD0E17E007E657E71B1E5
:104B8C00B4F91060062111FB0061B4F90C60B1425C
:104B9C00C1BFB4F91210228201EBC5026282E28A13
:104BAC000192A28A0092CDE90205B4F91220B4F95F
:104BBC0010102046FFF75EFE237E228A03EB430390
:104BCC0002EB43032382D2E70A2907D10023038295
:104BDC00417E927A438A01FB0233C7E70D29C6D086
:104BEC00157AA942C3D3517A9942C0D351685D1B3F
:104BFC00EDB201EBC505A87828B3E97819B3E17ECD
:104C0C00267E677E91B195F905100844B4F9101011
:104C1C0006FB0011B4F90C00814207DD0020208254
:104C2C00B4F91210927A02FB07126282E28A0192A4
:104C3C00A28A0092CDE90267B4F91220B4F91010DF
:104C4C002046FFF717FE2979227E238A01FB0233C7
:104C5C00B8E7012938BF0121017641767047000081
:104C6C0010B5064B03600446006D08B100F032FE2F
:104C7C00204600F0D1F8204610BD00BFE4890B009F
:104C8C0010B50446FFF7ECFF20467021FFF711FA30
:104C9C00204610BD30B585B004460D4603F026F90C
:104CAC00104A1149CDE901214FF0FF328021034612
:104CBC0000922046202200F027F90C4B23600023A1
:104CCC00C4E9143504F1580000F054F804F1600004
:104CDC0000F050F804F1680000F04CF8204605B0E4
:104CEC0030BD00BF801A0600A0860100E4890B00CD
:104CFC0013B50446503000F0E5FD636DD90705D5BA
:104D0C000222042104F1580000F048F8636D9A0760
:104D1C0005D50022032104F1600000F03FF8636D1B
:104D2C005B0705D50222114604F1680000F036F845
:104D3C00012300933C220221204600F0EDF902B041
:104D4C0010BD10B5436DD907044602D5583000F09C
:104D5C0032F8636D9A0703D504F1600000F02BF86C
:104D6C00636D5B0705D504F16800BDE8104000F0E9
:104D7C0022B810BD00210A22C0E90012704700239E
:104D8C0010B50446C171837188B203F041F808B1C3
:104D9C000323A37100F0FAFC206010BD38B50C465B
:104DAC0005461146A0B203F009F821462846BDE895
:104DBC003840FFF7E4BF38B50446C07903F028F853
:104DCC00A579003825F0080318BF0120C5F340056C
:104DDC008542A3710AD000F0D9FCA379206083F03E
:104DEC000203A371A079C0F3C00038BD00F0CEFC63
:104DFC002368C01AA3889842F4D3A37903F0010363
:104E0C00AB42EFD000F0C2FCA379206083F0010329
:104E1C0043F00803E5E7000010B5044B03600446BB
:104E2C00C06A08B100F06EFF204610BDF08E0B007A
:104E3C0010B50446FFF7F0FF20465021FFF739F973
:104E4C00204610BD002910B54BDBB0F90C408C424C
:104E5C0047DD002A45DBB0F90E40944241DD847EEB
:104E6C00022C1FD0032C26D0012C04D10489D24350
:104E7C0014440A4621B2012B23D0022B32D083BB1F
:104E8C00002A13460489C06AB8BFD31DDB1013FB7C
:104E9C00041102F0070201239340425C22EA030250
:104EAC0042541EE00489013C611A4489D2432244D5
:104EBC0009B212B2DFE74489013C641A114622B2EE
:104ECC00D9E7002A04891346B8BFD31DDB1013FBA6
:104EDC000411C36A02F0070001228240585C0243AD
:104EEC005A5410BD002A13460489C06AB8BFD31D9A
:104EFC00DB1013FB041102F00702012303FA02F288
:104F0C00435C5A40CCE7000070B504461D460026B1
:104F1C00FFF746FC114B2360666215B902F0E6FF01
:104F2C000546FF2384F8333084F836309DF9103071
:104F3C0084F837300A4BA363012384F83C30059B7B
:104F4C00A3644FF6FF72069BA286C4E90A56266438
:104F5C00A4F84460E364204670BD00BFF08E0B00E3
:104F6C003C8A0B00F8B50446806A0D4690B194F962
:104F7C00301002F0EBFDA06A036800219B68984793
:104F8C00A06A036829469B689847A06ABDE8F84068
:104F9C0002F0E3BD94F93530014698B202F01FFFE0
:104FAC00606A20B12946BDE8F84000F0C5BF08266C
:104FBC00802794F9330005EA070180B202F00FFF55
:104FCC0094F93400012180B202F009FF94F9340005
:104FDC00002180B202F003FF013E4FEA5707E8D1EF
:104FEC00F8BD38B50446806A0D4680B1A16C02F05C
:104FFC009FFD002D204614BFA721A621FFF7B2FF6D
:10500C00A06A88B1E16CBDE8384002F091BD606ADD
:10501C0018B104F1380100F021FF94F93600002199
:10502C0080B202F0DCFEE4E794F93600012180B294
:10503C0002F0D5FE606A18B1BDE8384000F0F4BE4D
:10504C0038BD2DE9F8430446806A0D468F1840B3ED
:10505C0094F9301002F07AFDA06A036800219B6875
:10506C0098470126AF42A06A17D01F2E0CD902F028
:10507C0074FD94F93010A06A02F068FDA06A036810
:10508C0000219B6898470126A06A15F8011B03684C
:10509C0001369B689847F6B2E4E7BDE8F84302F0A6
:1050AC005CBD94F93530014698B202F098FEBD42D1
:1050BC0022D0606A15F8019B18B1494600F03CFFFC
:1050CC00F5E708264FF0800894F9330009EA080147
:1050DC0080B202F084FE94F93400012180B202F017
:1050EC007EFE94F93400002180B202F078FE013E7D
:1050FC004FEA5808E8D1DAE7BDE8F883B0F90A308E
:10510C00DA1D48BF03F10E02B0F90830C06AD210A4
:10511C005A43002103F064B82DE9FF411E46C36ACF
:10512C009DF8288004460F461546C3B12046FFF76C
:10513C00E5FFB4F90A00B4F90810202821DC20237B
:10514C0001222038CDE9013200EBD0707323733982
:10515C00009301EBD171894B40F34F0221E0B0F980
:10516C000A30D81D48BF03F10E00B4F90830C01046
:10517C00584300F0BFFDE0620028D7D104B0BDE871
:10518C00F0814038C0F3C03202FA80F24023012093
:10519C00CDE90130522352390093794B01EBD17197
:1051AC005210204641F34F01FFF710FBA06A84F820
:1051BC003170002878D0002D74D1B4F90A30202B2E
:1051CC000CBF3C253D2584F83050B8F1000F01D0C0
:1051DC0002F0B2FCFEB194F9370000281BDB012170
:1051EC0080B202F0EBFD94F93700012180B202F09D
:1051FC00F6FD012002F040FA94F93700002180B24C
:10520C0002F0EDFD0A2002F037FA94F93700012183
:10521C0080B202F0E4FDA06A002874D0A16C02F008
:10522C0087FC042257492046FFF70BFF618901399F
:10523C00C9B22046FFF796FE534904222046FFF7D9
:10524C0000FF94F93130012B0CBF102114212046A2
:10525C00FFF788FE04224D492046FFF7F2FEA368B3
:10526C004B4A93425CD14B4904222046FFF7E9FE9E
:10527C00D9212046FFF776FE94F93130012B0CBF73
:10528C002221F1212046FFF76DFE204642490622DD
:10529C00FFF7D7FEA06A002863D0E16C02F048FC4F
:1052AC0001206BE76DB28EE794F93500012180B2D5
:1052BC0002F084FD94F93600012180B202F07EFDEB
:1052CC0094F93600012180B202F089FD656A3DB186
:1052DC00B8F1000F3FF47EAF284600F091FD79E75E
:1052EC0094F93300012180B202F068FD94F9340086
:1052FC00012180B202F062FD94F93400294680B29B
:10530C0002F06DFD66E7606A18B104F1380100F037
:10531C00A5FD94F93600002180B202F060FD80E713
:10532C001E4A93420ED11E4903222046FFF789FEE6
:10533C0094F93130012B0CBF9F21CF212046FFF770
:10534C0011FE95E7174A934292D117490322204642
:10535C00FFF777FE94F93130012B0CBF1021AF21F0
:10536C00ECE794F93600012180B202F038FD606A56
:10537C00002895D000F058FD92E700BF088D0B0077
:10538C00488A0B00508F0B00548F0B00588F0B006A
:10539C0080002000628F0B005C8F0B0080004000AF
:1053AC00668F0B0060001000698F0B0070B5002A2F
:1053BC00BDF810503DDBB0F90A40944239DD0029AC
:1053CC00BEBF5B181BB20021B0F90840CE18A64234
:1053DC00C4BF631A1BB2002B2BDDC06AD61014FBA2
:1053EC000611014402F0070001228240012DD2B2C5
:1053FC0016D0022D0BD0E5B9D243D2B20B44994250
:10540C0017D011F8010B104001F8010CF7E70B4411
:10541C0099420ED011F8010B504001F8010CF7E73E
:10542C000B44994205D011F8010B104301F8010C03
:10543C00F7E770BDF0B50029BDF8145076DBB0F974
:10544C000860B14272DA002ABEBF9B181BB2002260
:10545C00B0F90A40D718A742C4BFA31A1BB2002B3D
:10546C0064DDC2F3C404C76A16FB041612F007020B
:10547C00DBB207EB060423D0C2F10802D2B22D49ED
:10548C0093423CBF4FF0FF0CA2EB030E895C3CBF78
:10549C004CFA0EFC0CEA0101012D07D0022D2ED086
:1054AC004DB917F806C02CEA010103E017F806C045
:1054BC0041EA0C01B955934238D3B0F908100C44A9
:1054CC009A1AD2B2072A0ED9022D1DD11346217871
:1054DC00C9432170083BB0F90810DBB2072B0C4410
:1054EC00F5D802F007020AB3134B012D9B5C1AD0BE
:1054FC00022D1CD0D5B9227822EA030315E017F847
:10550C0006C081EA0C01D5E7291E18BF01214942CA
:10551C00C9B213462170083BB0F90860DBB2072B07
:10552C003444F7D8DDE7227813432370F0BD22789A
:10553C005340FAE7408F0B00488F0B0070B41446B1
:10554C00827EBDF80C60022A0DD0032A18D0012AE5
:10555C0011D10289E443144424B203960A4621462D
:10556C0070BCFFF767BF42890589E44319441444B2
:10557C00691A24B209B20396224670BCFFF716BF13
:10558C0045891944691A09B2E7E730B41446827E9A
:10559C00BDF80850022A0DD0032A18D0012A11D1C7
:1055AC00E2180489A41A24B202950A46214630BC9A
:1055BC00FFF7FCBE0289C9431144E2184489A41ABE
:1055CC0009B224B20295224630BCFFF733BF4289A0
:1055DC00C943114409B2E7E72DE9F8430446806A50
:1055EC00002842D0A16C02F0A3FA474905222046BC
:1055FC00FFF727FD218901392046C9B2FFF7B2FC1C
:10560C00B4F90A30DE1D48BF03F10E06D4E90A05D1
:10561C002389F61013FB06F615FA86F600283AD005
:10562C0094F9301002F092FAA06A036840219B684A
:10563C0098470127B542A06A24D01F2F0CD902F03D
:10564C008CFA94F93010A06A02F080FAA06A036810
:10565C0040219B6898470127A06A15F8011B036835
:10566C0001379B689847FFB2E4E7606A18B104F110
:10567C00380100F0F3FB94F93600002180B202F0FF
:10568C00AEFBB2E702F069FAA06A78B3E16CBDE850
:10569C00F84302F04DBA94F93500012180B202F0C2
:1056AC009EFBAE42F0D0606A15F8019B18B14946DA
:1056BC0000F042FCF5E708274FF0800894F933001E
:1056CC0009EA080180B202F08AFB94F93400012146
:1056DC0080B202F084FB94F93400002180B202F015
:1056EC007EFB013F4FEA5808E8D1DAE794F936001F
:1056FC00012180B202F073FB606A18B1BDE8F84377
:10570C0000F092BBBDE8F8836C8F0B0008B5024B20
:10571C001B689B68019308BD6802030008B5024B27
:10572C001B68DB68019308BD6802030008B5024BD7
:10573C001B689B68019308BD2C02030008B5024B43
:10574C001B68DB68019308BD2C02030008B5024BF3
:10575C001B681B69019308BD2C02030008B5024BA2
:10576C001B685B69019308BD2C02030008B5024B52
:10577C001B685B68019308BD1802030008B5024B57
:10578C001B68DB68019308BD1802030008B5024BC7
:10579C001B685B69019308BD1802030008B5024B36
:1057AC001B689B68019308BD7802030008B5024B87
:1057BC001B68DB68019308BD7802030008B5024B37
:1057CC001B681B6A019308BD7802030008B5024BE5
:1057DC001B681B6D019308BD7802030008B5024BD2
:1057EC001B689B6D019308BD7802030008B5024B42
:1057FC001B681B6E019308BD7802030008B5034BB0
:10580C001B68D3F89830019308BD000078020300A0
:10581C0008B5034B1B68D3F8A830019308BD0000F2
:10582C007802030008B5034B1B68D3F8B43001931E
:10583C0008BD00007802030008B5034B1B68D3F8C1
:10584C00D830019308BD00007802030008B5034B63
:10585C001B68D3F8DC30019308BD0000780203000C
:10586C0008B5034B1B68D3F8E830019308BD000062
:10587C007802030008B5034B1B68D3F8EC30019396
:10588C0008BD00007802030008B5034B1B68D3F871
:10589C00F030019308BD00007802030008B5034BFB
:1058AC001B68D3F80031019308BD00007802030097
:1058BC0008B5034B1B68D3F80431019308BD0000F5
:1058CC007802030008B5024B1B681B6B019308BDE3
:1058DC004802030008B5024B1B685B6B019308BDC3
:1058EC004802030008B5024B1B685B6C019308BDB2
:1058FC004802030008B5024B1B68DB6C019308BD22
:10590C004802030008B5024B1B685B6D019308BD90
:10591C004802030008B5024B1B685B69019308BD84
:10592C006402030008B5024B1B68DB68019308BDD9
:10593C003C02030008B5024B1B681B69019308BDB0
:10594C003C02030008B5024B1B685B69019308BD60
:10595C003C02030008B5024B1B689B69019308BD10
:10596C003C02030008B5024B1B68DB69019308BDC0
:10597C003C02030008B5024B1B681B6A019308BD6F
:10598C003C02030008B5024B1B689B6A019308BDDF
:10599C003C02030008B5024B1B681B6C019308BD4D
:1059AC003C02030008B5024B1B681B68019308BD41
:1059BC002802030008B5024B1B68DB68019308BD85
:1059CC002802030008B5024B1B689B69019308BDB4
:1059DC002802030008B5024B1B68DB69019308BD64
:1059EC002802030008B5024B1B681B6A019308BD13
:1059FC002802030008B5024B1B685B6A019308BDC3
:105A0C002802030008B5024B1B689B6A019308BD72
:105A1C002802030008B5024B1B68DB6A019308BD22
:105A2C002802030008B5024B1B681B6B019308BDD1
:105A3C002802030008B5024B1B685B6B019308BD81
:105A4C002802030008B5024B1B681B6C019308BDB0
:105A5C002802030008B5024B1B681B68019308BDA4
:105A6C003002030008B5024B1B685B69019308BD4B
:105A7C003002030008B5024B1B68DB69019308BDBB
:105A8C003002030008B5024B1B681B6A019308BD6A
:105A9C003002030008B5024B1B685B6A019308BD1A
:105AAC003002030008B5024B1B68DB6B019308BD89
:105ABC003002030008B5024B1B681B6C019308BD38
:105ACC003002030008B5024B1B685B6C019308BDE8
:105ADC003002030008B5024B1B681B68019308BD1C
:105AEC004C02030008B5024B1B681B69019308BDEF
:105AFC004C02030008B5024B1B685B69019308BD9F
:105B0C004C02030008B5024B1B689B69019308BD4E
:105B1C004C02030008B5024B1B68DB69019308BDFE
:105B2C004C02030008B5024B1B681B6A019308BDAD
:105B3C004C02030008B5024B1B685B68019308BD5F
:105B4C006002030008B5024B1B689B68019308BDFB
:105B5C006002030008B5024B1B68DB68019308BDAB
:105B6C006002030008B5024B1B689B69019308BDDA
:105B7C006002030008B5024B1B68DB69019308BD8A
:105B8C006002030008B5024B1B685B6B019308BDF8
:105B9C006002030008B5024B1B681B6D019308BD26
:105BAC006002030008B5024B1B685B68019308BDDB
:105BBC002002030008B5024B1B685B69019308BD0A
:105BCC002002030008B5024B1B68DB6A019308BD79
:105BDC002002030008B5034B1B68D3F888300193EF
:105BEC0008BD00002002030008B5034B1B68D3F866
:105BFC009430019308BD00002002030008B5034B4C
:105C0C001B68D3F8BC30019308BD000020020300D0
:105C1C0008B5034B1B68D3F8C030019308BD0000D6
:105C2C002002030008B5024B1B685B68019308BD9A
:105C3C004002030008B5024B1B689B68019308BD2A
:105C4C004002030008B5024B1B68DB68019308BDDA
:105C5C004002030008B5024B1B681B69019308BD89
:105C6C004002030008B5024B1B685B69019308BD39
:105C7C004002030008B5024B1B689B69019308BDE9
:105C8C004002030008B5024B1B68DB69019308BD99
:105C9C004002030008B5024B1B681B6A019308BD48
:105CAC004002030008B5024B1B681B6B019308BD37
:105CBC004002030008B5024B1B685B6B019308BDE7
:105CCC004002030008B5024B1B681B6C019308BD16
:105CDC004002030008B5024B1B685B6C019308BDC6
:105CEC004002030008B5024B1B68DB6B019308BD37
:105CFC004402030008B5024B1B681B68019308BDE6
:105D0C001C02030008B5024B1B685B68019308BDBD
:105D1C001C02030008B5024B1B689B68019308BD6D
:105D2C001C02030008B5024B1B685B6A019308BD9B
:105D3C001C02030008B5024B1B68DB6A019308BD0B
:105D4C001C02030008B5024B1B681B6C019308BDB9
:105D5C001C02030008B5024B1B685B6C019308BD69
:105D6C001C020300002240681146FFF793BF00227B
:105D7C0040681146FFF79EBF40680022FFF792BFB4
:105D8C004068002281F00101FFF77CBF00234068CE
:105D9C001A461946FFF76EBF002340681A4619468B
:105DAC00FFF760BF002240681146FFF753BF002287
:105DBC0040681146FFF73EBF406800220221FFF702
:105DCC0041BF002340681A46FFF72CBF024B032249
:105DDC005A60024A1A607047B8E603207C8F0B00A9
:105DEC000021FFF76FBE0021FFF764BE10B504461B
:105DFC0008462170FFF73EFE00236360204610BD6D
:105E0C0013B504460078FFF7EEFF58B920780190DF
:105E1C004FF6FF71FFF71EFE019802B0BDE810406F
:105E2C00FFF7DEBF02B010BD0078FFF7D9BF00004E
:105E3C00400830B51860002418688842E5B206D9CD
:105E4C000134082C02D040081860F5E70725024BF6
:105E5C005B5D137030BD00BFB08F0B002DE9F043BC
:105E6C0006468FB000780C46FFF7BDFF00281BDB01
:105E7C0035781422002109A802F0B2F90B23002274
:105E8C0009A92846ADF82430FFF704FE9DF82D3003
:105E9C0013B19DF82C5055B10027B946B8460125D1
:105EAC0023795DB1C3B100200FB0BDE8F083DDF8FC
:105EBC0030809DF834909DF83570F1E7002B35D18A
:105ECC00A368434508D18DF820908DF82170BDF85A
:105EDC002020A3899A42E6D00023A1688DF80F30C8
:105EEC000A9804AB0DF10F02FFF7A2FF217985B9D7
:105EFC0089B9A36843450ED38DF820908DF8217095
:105F0C00BDF82020A3899A4205D1049B434502D1B8
:105F1C00C9E70029F9D100230193637B00939DF815
:105F2C000F20237B3078FFF7BDFDBCE7CDE9005592
:105F3C002B462A460121F5E708B50078FFF792FDBC
:105F4C00C0B208BD054B02221A60054B054A9A6087
:105F5C000020C3E90000FFF725BE00BFCCE60320FC
:105F6C00C0E603200000FFFF10B504460068FFF7F1
:105F7C00C9FE204610BD10B50446006808B1FFF7F5
:105F8C00C1FE0023C4E90133236010BD38B50446BB
:105F9C000D4600680131FFF7BDFE10B1C4E90005E4
:105FAC00012038BD10B50368044623B143688B4209
:105FBC0001D3012010BD2046FFF7E8FF0028F9D0DF
:105FCC00A368002BF5D122681370F2E737B50D46A4
:105FDC00114601920446FFF7E5FF019A28B92046C5
:105FEC00FFF7C9FF204603B030BDA26029462068E8
:105FFC0002F0CEF82268A3680021D154F2E7002306
:10600C0013B5C0E9003304468360037341B10846FD
:10601C000191FEF707F8019902462046FFF7D6FFDB
:10602C00204602B010BD13B5044659B10846019183
:10603C00FDF7F8FF019902462046FFF7C7FF2046FF
:10604C0002B010BDFFF797FFF9E758B50E462AB11D
:10605C0021B18468A34202D300230B7058BDE41A0B
:10606C00013A0168944228BF14461944224630462E
:10607C0002F0ECF800233355F0E770477047704797
:10608C0070470000064B994210B500F10C0405D086
:10609C00084601F055FF002808BF0024204610BD1B
:1060AC0034910B00064B994210B500F10C0405D04D
:1060BC00084601F045FF002808BF0024204610BD0B
:1060CC0034910B00064B994210B500F10C0405D02D
:1060DC00084601F035FF002808BF0024204610BDFB
:1060EC0034910B0010B568210446FDF7E2FF204601
:1060FC0010BD10B528210446FDF7DBFF204610BD6E
:10610C0010B530210446FDF7D4FF204610BD6821A0
:10611C00FDF7CFBF2821FDF7CCBF3021FDF7C9BF5C
:10612C00F0B50025EC1C8C420DD86E1C445D875DCF
:10613C00974205D12644B14205D31D60601CF0BDC9
:10614C0001342544EEE70020F9E70000024A034938
:10615C000A20FFF717BD00BF89570B00B88F0B0043
:10616C0030B40D4611461A46036809682868D3E90D
:10617C000043A44630BC6047012A38B5044602D11E
:10618C000B68236003E0022A03D0032A0DD0002001
:10619C0038BD08200D68FDF788FF03460028F0D0B5
:1061AC0095E8030083E80300EBE700680028EED0D5
:1061BC000821FDF77EFFEAE710B58368044613B1AA
:1061CC00032201469847204610BD10B504465830AE
:1061DC00FFF7F2FF04F14800BDE81040FFF7C4BE22
:1061EC0010B54368013B0446436063B903689B6880
:1061FC009847A368013BA3602BB923682046DB6852
:10620C00BDE81040184710BDA0F13003DAB2092ADE
:10621C0001D818467047A0F16103052B01D85738F7
:10622C007047A0F14103052B94BF37384FF0FF3076
:10623C007047000010B500230370044B0446186827
:10624C00FFF758FB01232370204610BDD8E603202E
:10625C0010B5037804461BB1024B1868FFF752FBCC
:10626C00204610BDD8E6032082B003460868496872
:10627C006A4603C26A4603CA18601846596002B0DF
:10628C00704708B582798B799A4206D1062201F0C3
:10629C006FFFB0FA80F0400908BD0020FCE74FF01A
:1062AC00FF33036083800020704708B5024600214D
:1062BC0001604160FFF7F3FF9171104608BD0000CB
:1062CC0010B501230361054B024603F1100153F88D
:1062DC00044B42F8044B8B42F9D110BD6A830B007E
:1062EC0010B50B460446B1B1012A01F110020AD1D6
:1062FC00014653F8040B41F8040B9342F9D10123E6
:10630C002361204610BD411E12F8010D01F8010F4A
:10631C009A42F9D1F3E7102201F062FFF1E738B5A8
:10632C00044615461A46FFF7DBFFA581204638BD0B
:10633C0008B5026922B98089003818BF012008BD50
:10634C000249102201F014FFF6E700BF4C910B003C
:10635C000069704738B50C4614220021054601F03F
:10636C003FFF23691BB9A3892B80284638BD012325
:10637C002B7421462B4604F1100251F8040B43F800
:10638C00040B9142F9D1F0E780897047704708B54A
:10639C0002690B699A4206D1102201F0E9FEB0FAAB
:1063AC0080F0400908BD0020FCE7000001232DE926
:1063BC00F3410361344B0C460646024603F11001CF
:1063CC0053F8040B42F8040B8B42F9D144B324214B
:1063DC00204601F04EFF04284FF0000523D1ADF804
:1063EC00045001AFA51C063415F8020CFFF70CFF86
:1063FC00B0F1000812DB15F8010CFFF705FF0028BF
:10640C000CDB023540EA0810A54207F8010BEBD172
:10641C009DF8053033739DF804307373002333619A
:10642C0002B0BDE8F0814FF010082421204601F0A5
:10643C0020FFA84207D842460021304602B0BDE8F2
:10644C00F04101F0CDBEB8F1000FE9D0605DFFF76F
:10645C00DBFE030615D4000108F1FF38C7B206F8BD
:10646C0008702421204601F004FF0135A84208D908
:10647C00605DFFF7C9FE40B20028A4BF384306F8A0
:10648C0008000135D1E700BF6A830B0013B5044641
:10649C000191FFF715FF20460199FFF787FF204672
:1064AC0002B010BD38B54FF6FF730025044643808B
:1064BC000E22294605700571063001F091FE04F19B
:1064CC001400FFF7FDFE04F12800FFF7F9FE044964
:1064DC0004F13C00FFF793FD6565204638BD00BF15
:1064EC00C8830B0010B5D0E9063203EBC20293420D
:1064FC00184606D0046824888C4203F10803F6D1B0
:10650C0010BD0020FCE70000F0B5064685B01F4624
:10651C000D46002950D0002A4ED004682378F42A66
:10652C0028BFF42243B32379980709D5A089039295
:10653C000023FFF777F90028039A03DA05B0F0BDC2
:10654C006FF0770034682379D90609D5012F07D06D
:10655C00A0890023294605B0BDE8F040FFF79EB99D
:10656C009B06EBD5022FE9D0A0890023294605B064
:10657C00BDE8F040FFF79CB960884FF6FF71884288
:10658C001CD021794E0701D5012F04D10B0709D45A
:10659C006FF07700D2E7A189009313462A46FFF7E4
:1065AC0055F9CBE7022FF3D00023A18900931346B2
:1065BC002A46FFF741F9C1E70248BFE76FF0D10067
:1065CC00BCE700BFF2FEFFFF2DE9F041002606609C
:1065DC00074628200C46FDF768FD051E05F10C0842
:1065EC000FD00123C5E90133084B2B604046FFF760
:1065FC0067FE0FCC2E6285F8246046460FC62368D2
:10660C003360C7E900853846BDE8F08104910B0082
:10661C0070B50025056006463020FDF746FD0446A2
:10662C0088B10123C0E90133094B03604FF6FF73B6
:10663C0083810E30FFF739FEC4E90655C4E90855CD
:10664C00C4E90A55A57574600C343460304670BDCD
:10665C0020910B0013B5044601A8FFF7EBFD23684E
:10666C001C884FF6FF73E41A01A818BF0124FFF72A
:10667C00EFFD204602B010BD37B50D46044601A80B
:10668C00FFF7D8FD2A68D2F802302360D2F8063022
:10669C00636001A8FFF7DCFD204603B030BD30B5C8
:1066AC00054687B00C4601A8FFF7C4FD2A6823688D
:1066BC0012881B889A420DD1294602A8FFF7DCFFED
:1066CC00214604A8FFF7D8FF04A902A8FFF7D9FDBB
:1066DC00044600B9002401A8FFF7BAFD204607B014
:1066EC0030BD000010B504466420FDF7DEFC68B137
:1066FC000023C0E90033C0E90233C0E90433C0E928
:10670C0006330362C362C363C364C365206020B9EC
:10671C000A4A0B490A20FFF735FA0020FFF73EF82A
:10672C0020B1064A07490A20FFF72CFA21680648CF
:10673C000022FFF7A9F8204610BD00BF89570B00B7
:10674C00B88F0B00F68F0B00616D0B0010B50A4C67
:10675C002378BFF35B8FDB070CD42046FDF7B8FC26
:10676C0040B10648FFF7BEFF2046FDF7B6FC0448D3
:10677C0001F0F8FC014810BDD0E60320DCE6032054
:10678C00D5690B0030B50368093B012B8DB004466D
:10679C000D4611D8FFF7DAFFA1880068FFF7A2FEBB
:1067AC00034658B92022CDE904200B4A00920B492C
:1067BC0004AA3220FFF7EEF90DB030BD6A6D002A45
:1067CC00FAD0D4E9032105F14C00CDE90312AC6DEC
:1067DC0004AA03A9A047EFE738900B00CF8F0B005A
:1067EC0008B50020FEF7DAFF00EAE07008BD10B52E
:1067FC000C4621B11421204601F03BFD01462046F8
:10680C000022BDE81040FEF7D9BF08460021FFF773
:10681C00F5B919B90A460846FEF7D8BFD1E9000107
:10682C000022F9E70368D8690028D4BF00200120B2
:10683C00704738B5141E4368054602DB62189A424D
:10684C0000DD5C1A2A68501801191A44521A01F01A
:10685C00ADFC6A68121B6A6038BD37B50A4604463F
:10686C000D4601ABD0E90001FFF75AFC024638B1E6
:10687C0001992046FFF7DDFF29462046FFF7EDFF83
:10688C0003B030BD10B50C4629B90A460846BDE820
:10689C001040FEF7A3BF01212046FFF7DEFFD4E92D
:1068AC0000010022F3E738B504461546FFF7B1FFA7
:1068BC0000280ADB29462046FFF7E4FF002804DB0A
:1068CC00BDE838400020FEF791BF38BD38B5002335
:1068DC000446836008200D46FDF7E7FB18B12B68D2
:1068EC0003606B684360034BE360034B2060A36061
:1068FC00204638BD6D610B0085610B000B68036091
:10690C0013B15A6801325A60704710B551F8043B04
:10691C00044640F8043BFFF7F1FF23680BB9FFF77F
:10692C0015FC204610BD10B551F8043B044640F848
:10693C00043BFFF7E3FF204610BD10B551F8043BB4
:10694C00044640F8043BFFF7D9FF204610BD10B5B4
:10695C000446006808B1FFF743FC204610BD10B593
:10696C0004460430FFF7F3FF204610BD70B5D0E9A4
:10697C000053044605EBC306AE4204D0281DFFF7B6
:10698C00E6FF0835F8E72068FFF7BCF9204670BD34
:10699C0070B5D0E90053044605EBC306AE4204D0F3
:1069AC00281DFFF7D4FF0835F8E72068FFF7AAF990
:1069BC00204670BD10B504462430FFF7E9FF04F102
:1069CC001800FFF7D3FF10BD70B5174B1C6854B3FC
:1069DC0004F15400FFF7F0FB04F14400FFF7ECFB6B
:1069EC0004F13400FFF7E8FB04F12400FFF7E4FBAB
:1069FC00D4E9065305EBC306AE4204D0281DFFF7BD
:106A0C00A6FF0835F8E7A069FFF77CF904F10C0044
:106A1C00FFF7BEFF2046FFF7A9FF20466421BDE823
:106A2C007040FDF746BB70BDDCE6032013B50023B8
:106A3C00D1E90042C1E90033036800930460436864
:106A4C00426001A80193FFF782FF02B010BD82687B
:106A5C0010B50AB901F070FABDE81040C3681847C8
:106A6C0070B5D0E90053044605EBC306AE4204D022
:106A7C00281DFFF76CFF0835F8E70023636070BD35
:106A8C0013B504460020FEF791FE002812DB00200F
:106A9C00FFF7BEF818B100212046FFF7B6FE01A89B
:106AAC00FFF7C8FB20681830FFF7DAFF01A8FFF7E3
:106ABC00CFFB002002B010BD38B50D1E0446006897
:106ACC0003DDFFF727F918B938BDFFF71BF90020D4
:106ADC002060A5600120F7E708B583688B4202DAD5
:106AEC00FFF7EAFF08BD0120FCE72DE9F0410F4656
:106AFC0041681D461944836899420446904612DC4D
:106B0C00266862683E44D21B3146701901F04EFB78
:106B1C002A464146304601F03BFB63682B446360D8
:106B2C000120BDE8F081FFF7C7FF0028E8D1F8E7A6
:106B3C00F8B50D46D0E901139942044616460BDA16
:106B4C00276862687919521B481C01F02FFB7E558F
:106B5C00636801336360F8BD0131FFF7ADFF0028B6
:106B6C00EED1F8E70A464168FFF7E2BF2DE9F7439B
:106B7C0004461D460F4601AB90460A46D0E900017B
:106B8C009DF82890FFF7CCFAAE1C63680246B9F169
:106B9C00000F26D128B333441B1AFF2B09D80199B7
:106BAC002046FFF746FE616820463144FFF794FF0C
:106BBC0018B9606803B0BDE8F0836A1C0199D2B2C1
:106BCC002046FFF7B5FF01993A4601312046FFF701
:106BDC00AFFF01992B46424602312046FFF785FF55
:106BEC00E7E7F118FF29E4D82046FFF775FF0028E6
:106BFC00DFD0691CC9B22046FFF7B4FF39462046E6
:106C0C00FFF7B0FF61682B464246E6E730B49DF8CB
:106C1C0008501AB1029530BCFFF7A8BF406830BCD1
:106C2C0070471FB50023C0E9003383600622009330
:106C3C0001238DF80F2019460DF10F020446FFF7C2
:106C4C00E5FF204604B010BD8842F8B504460D4659
:106C5C00164614D9904213D2A2F10806751AA1F166
:106C6C0008072C44B74218D01CB131462046FFF718
:106C7C0064FE301DFFF76BFE083E083CF2E70CD0BB
:106C8C00B5420AD01CB129462046FFF756FE281DF6
:106C9C00FFF75DFE08350834F2E7F8BDF7B504469A
:106CAC0046686846FFF749FED4E901739F4212DB40
:106CBC000137002F29DDF800FFF71CF80546F0B16D
:106CCC00D4E9001201EBC202FFF7BEFF2068FFF708
:106CDC0019F82560A7602368626803EBC60603EB0E
:106CEC00C202314606F10800FFF7AEFF1EB169463D
:106CFC003046FFF722FE636801336360012501A86B
:106D0C00FFF725FE284603B0F0BD0025DEE7F8B5F9
:106D1C00D0E9004305460F4604EBC306A64205D056
:106D2C0039462046FFF7BBFC08B114B9F8BD08344E
:106D3C00F4E7201DFFF70BFED5E9003204F1080142
:106D4C0003EBC2022046FFF77FFF6B68013B6B60D1
:106D5C00ECE700002DE9F04105468EB003A80C4687
:106D6C00FFF768FA2E68F31E0D2B3CD8DFE813F002
:106D7C000E0057003B00D3003B003B003B003B00A8
:106D8C003B009D009D009D009D009D0004A8FFF709
:106D9C003FFC049BAA891A80696804980831023068
:106DAC00FFF762FA04A906A8FFF7C7FD06A904F1CC
:106DBC001800FFF773FF054607A8FFF7C8FDC5B914
:106DCC002023CDE906355E4B5E49009306AA2B467F
:106DDC000120FEF7DFFE049B29461888FEF70EFD06
:106DEC0005A8FFF7B4FD03A8FFF732FA0EB0BDE813
:106DFC00F081E36A23B104A904F12400FFF727FE14
:106E0C0005A8FFF7A4FD20210023CDE906134E4A67
:106E1C0000924C4906AA0120FEF7BCFEE3E7A989C3
:106E2C002046FFF75FFB06460028DCD00568D5E955
:106E3C0006324FF6FF71298003EBC2029A4203D04F
:106E4C0053F8080B4180F9E7D5E9037307EBC30846
:106E5C00B84504D0381DFFF77AFD0837F8E7002352
:106E6C002B61D5E9067307EBC308B84504D0381D70
:106E7C00FFF76DFD0837F8E70023EB61AB72E36BAE
:106E8C0023B1314604F13400FFF7E1FD33684FF6CE
:106E9C00FF721A80314604F11800FFF738FF2022E8
:106EAC000023CDE90623294AB2E7A9892046FFF73A
:106EBC0019FB002897D0E36C002B94D000230D2EE7
:106ECC00ADF8163001D0102E17D1002369681A4680
:106EDC0006258DF8153004918DF814200690DDE907
:106EEC00040109AB8DF81C60089583E80300236D41
:106EFC0006A904F14400984775E70F2E01BF2B7AC1
:106F0C00696803F0010208250FBFC3F340031A465A
:106F1C0019461D46DDE7A9892046FFF7E3FA01462D
:106F2C0000283FF460AFE36D002B3FF45CAF6B685F
:106F3C00069306AA236E04F15400984753E700BF4A
:106F4C0050900B00CF8F0B0076900B0080900B00B5
:106F5C0013B50446FFF77EFBD0B1236800211888D7
:106F6C00FEF74CFC002811DB01A8FFF763F9FFF7D3
:106F7C00EDFB006821461830FFF7C9FE23684FF679
:106F8C00FF721A8001A8FFF763F9002002B010BD50
:106F9C006FF0D100FAE700002DE9F04104468AB009
:106FAC006846FFF747F92368DFF86C80D3E906469B
:106FBC0004EBC606B44229D02022002102A8CDF849
:106FCC00048001F00DF923680022188801A9FEF74E
:106FDC0047FC054608B10834ECE79DF80870012F12
:106FEC00F9D10C4E3068FEF78DFC20468DF8005020
:106FFC00FFF7AEFF3068FEF77DFC8DF80070684639
:10700C00FFF726F928460AB0BDE8F0816FF0A90514
:10701C00F5E700BFD8E603200300240013B50B46A8
:10702C000246D0E900016C4684E8030093E80300B3
:10703C0082E8030094E8030083E8030002B010BD6B
:10704C0038B505460C46FFF7E9FFAB68A268AA60A5
:10705C00A360EB68E268EA60E36038BD70B5044693
:10706C008CB00E4601921D46FFF71CFA2671019951
:10707C0004F13C00FEF7D7FF04F14C06CDB1109B98
:10708C00029502A904A80393FFF720FC002308A98A
:10709C0004A80A93FFF7D4FF314608A8FFF7D0FFE6
:1070AC0008A8FFF789F804A8FFF786F820460CB06B
:1070BC0070BD0695EAE700002DE9F04F87B01D463C
:1070CC00DDE9104380468B469246129903930022C9
:1070DC00682002910492FCF7E8FF061E06F10C09E9
:1070EC0018D001223746C6E901220299154A47F801
:1070FC00202B039B00915A4651464846FFF7AEFFA2
:10710C000FCD0FC72B683B600FCC06F134050FC5B4
:10711C0023682B6004A94046CDE90496FFF786FC52
:10712C0005A8FFF714FCD8F800303BB9064A07490C
:10713C000A2007B0BDE8F04FFEF724BD07B0BDE84C
:10714C00F08F00BFE8900B0089570B00B88F0B0035
:10715C008842F8B504460D46164614D9904213D20F
:10716C00A2F10806751AA1F108072C44B74218D0F1
:10717C001CB131462046FFF7D6FB301DFFF7E7FB6D
:10718C00083E083CF2E70CD0B5420AD01CB12946A7
:10719C002046FFF7C8FB281DFFF7D9FB083508343C
:1071AC00F2E7F8BD70B50E1E054611DDF000FEF7D6
:1071BC00A1FD044658B1D5E9001201EBC202FFF75C
:1071CC00C7FF2868FEF79EFD2C60AE60012070BDE5
:1071DC000024F6E773B5044645686846FFF7A3FB41
:1071EC00D4E90113994210DA2368626803EBC505F0
:1071FC0003EBC202294605F10800FFF7A9FF8DB980
:10720C00636801336360012606E001312046FFF715
:10721C00C9FF06460028E7D101A8FFF798FB3046C6
:10722C0002B070BD69462846FFF77DFBE8E788424F
:10723C00F8B504460D46164614D9904213D2A2F165
:10724C000806751AA1F108072C44B74218D01CB1D6
:10725C0031462046FFF759FB301DFFF778FB083EFF
:10726C00083CF2E70CD0B5420AD01CB129462046A6
:10727C00FFF74BFB281DFFF76AFB08350834F2E7D4
:10728C00F8BD70B50E1E054611DDF000FEF732FD9F
:10729C00044658B1D5E9001201EBC202FFF7C7FF53
:1072AC002868FEF72FFD2C60AE60012070BD002415
:1072BC00F6E773B5044645686846FFF726FBD4E944
:1072CC000113994210DA2368626803EBC50503EBDE
:1072DC00C202294605F10800FFF7A9FF8DB96368C2
:1072EC0001336360012606E001312046FFF7C9FF38
:1072FC0006460028E7D101A8FFF729FB304602B06B
:10730C0070BD69462846FFF700FBE8E72DE9F04F12
:10731C001746A1B080460AA80E46FEF78BFF3C68C4
:10732C00237953B939464046FFF7EFFA0AA8FEF71E
:10733C008FFF404621B0BDE8F08F3368D3E903538B
:10734C0005EBC303039304F1280A04F1140B039B0C
:10735C009D4221D0D5F80090584609F11401FFF751
:10736C0016F8B8B109F128015046FFF710F888B1AA
:10737C002368D9F80020534033F47F430AD12022EC
:10738C00CDE915235E4A009215AA5E493220FEF71C
:10739C0001FCC7E70835DAE75046FEF7C9FF60B9CC
:1073AC005949012215A815ADFEF79AFF0FCDD44609
:1073BC00ACE80F002B68CCF800303368D3E90053ED
:1073CC0005EBC30B5D45A94651466ED055F8080B2D
:1073DC00FEF7DDFF0028F5D004F1140A5046FEF745
:1073EC00A7FF88B9494B48491A88013292B21A80D2
:1073FC0015A8012315ADFEF792FF0FCDD446ACE8CE
:10740C000F002B68CCF80030414B1593282200213B
:10741C0016A800F0E5FE514604A8FEF79BFF04AB4E
:10742C0018AA0DF1200C18685968154603C50833C5
:10743C0063452A46F7D11868286023798DF85830AF
:10744C00D9F800309B8AADF87430E36B1793314B4D
:10745C000022A11D15A8CDE91E34FEF70BFA002859
:10746C007FF460AF01232370346839460C340DA8C7
:10747C00FFF74BFA20460DA9FFF71BFF04460EA899
:10748C00FFF765FA002C7FF44DAF2023CDE90D34C6
:10749C00214B00930DAA234677E739464046FFF768
:1074AC0034FA0CA8FFF753FA40E70BA8FFF78CF857
:1074BC00514615A8FEF74EFF0B9A0023143215A95E
:1074CC000120FEF7A5F90028E7D135680BA90DA816
:1074DC00FFF729FA28460DA9FFF77CFE05460EA8F2
:1074EC00FFF735FA002DD8D032685368126803F1D3
:1074FC000053013B0CA802EBC309FFF728FA6BE71A
:10750C008D900B00CF8F0B003C910B00D4E6032029
:10751C0003002C0091670B00B8900B00024800236D
:10752C000360FEF7DFB900BFD8E60320F8B50646C6
:10753C000D468F180024BD420CD0336815F8011B82
:10754C009B6830469847031E01DB1C44F3E7002C74
:10755C0008BF1C462046F8BD13B50446084659B171
:10756C000191FCF75FFD23680199DB680246204618
:10757C0002B0BDE81040184702B010BD08B5FFF7C7
:10758C00EBFF08BD03689B68184738B50D2105460D
:10759C00FFF7F8FF0A2104462846FFF7F3FF2044C3
:1075AC0038BD38B50546FFF7D7FF04462846FFF728
:1075BC00ECFF204438BD30B58BB00023012A8DF888
:1075CC00243098BF0A2209AC0D46B1FBF2F101FB45
:1075DC00125303F0FF03092B94BF30333733DBB264
:1075EC00AA4204F8013DEFD92146FFF7B5FF0BB0D5
:1075FC0030BD2DE9F04186B000AF05460E46381D72
:10760C00142114463B60FEF78DFB13280ED8391D50
:10761C002846FFF7A1FF04461EB12846FFF7B5FF29
:10762C00044420461837BD46BDE8F08100F108033C
:10763C0023F00703E846ADEB030D2246411C3B68E3
:10764C006846FEF76FFB69462846FFF785FF044640
:10765C00C546E1E7014B024A1A607047E0E6032099
:10766C005C910B00024B1A68024B1A60704700BF0A
:10767C0074E50320E4E603200021FEF79BBA10B565
:10768C000446FEF76FFA844208D01CB1BDE81040E6
:10769C00FEF758BABDE81040FEF75CBA10BD70B5E5
:1076AC0005460E461446FEF75DFA50B144EA062430
:1076BC0044EA0540FEF73EFABDE87040E720FEF7CD
:1076CC0059BA70BD014B00229A607047E8E603205E
:1076DC00014B1860704700BF78E5032008B50B4BD1
:1076EC0043B100F063F903681B699847002801DD7A
:1076FC00AFF30080064B43B100F0B8FB03681B6985
:10770C009847002801DDAFF3008008BD00000000A1
:10771C000000000008B5FFF7E1FFFEF737F8014B5A
:10772C00186008BD40E703200548064A064908B51D
:10773C00121A00F02DFD054B054A1A6008BD00BF5A
:10774C0000F4032004F40320D4940B0000F4032071
:10775C001E1C279A07B5002300931A466FF0770179
:10776C00FEF742FA03B05DF804FB000007B543884E
:10777C000A2B08D0502B0BD1094B1B684BB103B013
:10778C005DF804EB1847FFF7E5FF03B05DF804FB69
:10779C00002300931A466FF07701FEF725FAF4E701
:1077AC00FCE6032010B512480021FEF7D3FA114B6A
:1077BC001A68114B9A42114B0CBF012200221A700D
:1077CC0001D0FFF7B1FFFDF7D1FF044600F010FD2B
:1077DC000B4B13B12046AFF3008000210848FEF795
:1077EC0081FABDE8104007480021FEF7F3B900BF4D
:1077FC00DD760B0000F403201E1C279AF8E603200C
:10780C000000000079770B00704710B51821044672
:10781C00FCF74FFC204610BDF0B5037D062B8DB058
:10782C000E4600F104074FF0000412D000F10805D9
:10783C0015F8011D0A223046FFF7BDFEAF42044485
:10784C0019D0002CF4D02E213046FFF79BFE0444B7
:10785C00EEE72F236A4639460A208DF80040FEF7E2
:10786C0059F86846FCF7DEFB33680246DB6869466C
:10787C0030469847044620460DB0F0BD10B5054B78
:10788C000446112240F8043B002100F0A9FC2046DC
:10789C0010BD00BF84910B000346074A10B543F896
:1078AC00042B01F1100251F8044B43F8044B9142A4
:1078BC00F9D10A781A7010BD84910B0010B59DF89F
:1078CC00084044EA032343EA024242EA01610423EA
:1078DC004160037510BD000007B5064B0360CB7803
:1078EC0000938B784A780978FFF7E8FF03B05DF8CE
:1078FC0004FB00BF84910B004174704770477047C4
:10790C0008B50021007CFEF7FDF840EAE07008BDE8
:10791C0008B50121007CFEF7F5F840EAE07008BDDF
:10792C0008B5007CFEF7E6F820EAE07008BD08B563
:10793C00007CFEF7D7F820EAE07008BD13B50446CA
:10794C00007C0191FEF7D6F80028019901DC607CDF
:10795C0020B1207CFEF7DEF820EAE07002B010BD0A
:10796C00007CFEF7DFB810B514210446FCF7A1FB30
:10797C00204610BD10B54FF47A730446084600211A
:10798C00C4E90113044B2360012320746374114672
:10799C00FEF7A0F8204610BD98910B0010B51422EC
:1079AC000446002100F01CFC204610BD10B50F4C05
:1079BC0088B003A8FFF7F2FF2178BFF35B8F11F0BB
:1079CC0001010FD120460191FCF782FB019948B1CE
:1079DC0003AA0748FFF7CEFF2046FCF77EFB0548BD
:1079EC0000F0C0FB024808B010BD00BF00E7032048
:1079FC0004E7032009790B0070474174704708B500
:107A0C00007CFDF7BFFF20EAE07008BD08B5007CE4
:107A1C00FDF790FF20EAE07008BD08B5007CFDF78B
:107A2C0099FF40EAE07008BD08B5007CFDF78AFFBD
:107A3C0040EAE07008BD007CFDF794BF37B5457C8B
:107A4C0004462DB1207C03B0BDE83040FDF76ABF81
:107A5C00007C0191FDF796FF00280199F2DC284685
:107A6C0003B030BD10B514210446FCF722FB2046B0
:107A7C0010BD000010B54FF47A7304460846114649
:107A8C000022C4E90123044B236001232074637496
:107A9C00FDF780FF204610BDC8910B007047F8B56C
:107AAC00064615460C468F18BC4206D0336814F8AF
:107ABC00011B9B6830469847F6E72846F8BD007CCA
:107ACC000022FDF78FBF007C0021FDF793BF007CE7
:107ADC000021FDF797BF007C0021FDF79BBF007CC8
:107AEC000021FDF79FBF10B514210446FCF7E1FA05
:107AFC00204610BD38B5044615464FF47A73002263
:107B0C00C4E90123094B2174084623602946FDF77B
:107B1C0099FFBF3008D16B69DB0705D56868FEF7A4
:107B2C00F1F8E868FEF7EEF8204638BDF8910B0046
:107B3C00007C0022FDF736BF0023007C1A46194654
:107B4C00FDF738BF007C0022FDF73CBFC9B2FFF740
:107B5C00F9BF007C0022FDF73DBF0121FFF7F9BF03
:107B6C00002240681146FEF775B8002240681146A5
:107B7C00FEF790B8002240681146FEF79BB84068AB
:107B8C000022FEF78FB84068002281F00101FEF759
:107B9C0079B8002340681A461946FEF76BB80023E3
:107BAC0040681A461946FEF75DB800224068114637
:107BBC00FEF740B8406800220221FEF743B80023CC
:107BCC0040681A46FEF72EB8024B04225A60024A4D
:107BDC001A60704718E7032020920B0000234068BE
:107BEC001A46FEF71FB8406800220221FEF72AB899
:107BFC00002240681146FEF71DB80022406811466D
:107C0C00FEF728B8002340681A461946FEF72AB832
:107C1C00002340681A461946FEF72CB8406800212C
:107C2C00FEF750B840680021FEF754B840680022B7
:107C3C0081F00101FEF726B840680022FEF732B849
:107C4C00002240681146FEF735B800224068114604
:107C5C00FEF720B82DE9F04395B014460D460746C3
:107C6C00FFF70CFE00211C220DA8009100F0B8FAC1
:107C7C0040230C9320466B460CAA0021FDF74EFDC9
:107C8C00044600284BD1024601216868FDF7E2FF4B
:107C9C000221804622466868FDF7DCFF009E814683
:107CAC002146002E3BD0002939D17368022B03D01A
:107CBC000A2B11D0F669F4E7B8F1000FFAD071690C
:107CCC0006A8043107ADFFF707FE0FCD3C1D0FC40E
:107CDC002B6823704146EDE7B9F1000FEAD07469C7
:107CEC00102201A800F07CFA06238DF8143001ADA7
:107CFC0004F108031834186859682A4603C208337B
:107D0C00A3421546F7D101A906A807ADFFF7C4FD9C
:107D1C000FCD3C1D0FC42B6823704946CAE7009851
:107D2C00FDF7F4FC384615B0BDE8F083024B034A6E
:107D3C001A6000225A60704720E703205C920B0007
:107D4C00232813B502D9002002B010BDA0F10B03FB
:107D5C00022B1AD8174C2178BFF35B8F11F001015D
:107D6C000BD120460191FCF7B3F9019928B11248C7
:107D7C00FEF73CF82046FCF7B0F90F4B1878FDF7EE
:107D8C0081FE0028DFD10120DEE7012809D800F0B0
:107D9C00ADF80021007CFDF74DFE80F00100C0B273
:107DAC00D2E709380128EED800F060F8007CFDF726
:107DBC00E1FDF2E7ACE60320B0E60320232838B55A
:107DCC0004460D460AD8FF2908D0FFF7B9FF28B1A1
:107DDC0029462046BDE83840FDF7A8BC38BD38B56B
:107DEC0004460D46FDF7AAFCFF2810D0062804D83F
:107DFC004D2323FA00F0C30709D42046FFF7A0FF58
:107E0C0028B129462046BDE83840FDF79FBC38BD57
:107E1C0010B50446FDF792FC031FDBB2012B08D909
:107E2C002046FFF78DFF20B12046BDE81040FDF73E
:107E3C0095BC002010BD704738B5044614252A4661
:107E4C00002100F0CDF925804025074925812846E1
:107E5C00258200F06FF804496060284600F06AF84B
:107E6C00E060204638BD00BF90920B0030B50E4D3F
:107E7C002978BFF35B8F11F0010487B011D128462C
:107E8C00FCF726F968B101A8FFF7D6FF01AA214635
:107E9C000648FFF7EFFD2846FCF71FF9044800F0F1
:107EAC0061F9024807B030BD28E703202CE7032016
:107EBC00437E0B007047000038B50A4B036001236A
:107ECC00044643610849202000F034F82025606006
:107EDC000549A560284600F02DF8C4E903052046A5
:107EEC0038BD00BF1800010090920B0030B50E4D4C
:107EFC002978BFF35B8F11F0010487B011D12846AC
:107F0C00FCF7E6F868B16846FFF7D6FF6A462146EB
:107F1C000648FFF7EFFD2846FCF7DFF8044800F0B1
:107F2C0021F9024807B030BD44E7032048E703209D
:107F3C00C17E0B00FCF7BBB808B5FDF7FBFE0000DB
:107F4C00014900F0F9B800BFAC920B007FB50024DA
:107F5C001023CDE90234036815469E6912686B46FE
:107F6C00CDE90044B0479DF8043003F00603062B1E
:107F7C0003BF009B2B600120204604B070BD00980D
:107F8C00904214BF012006207047000010B5034B2F
:107F9C000360044600F0CDF8204610BDEC920B00B7
:107FAC0010B50446FFF7F2FF20460821FCF781F8D4
:107FBC00204610BD2DE9F0411F46DDE90834DDF8FF
:107FCC00188098450646154607D1079900F0B4F875
:107FDC0018B165710020BDE8F0813946304600F0DB
:107FEC00ABF80028F6D00123C4F800802571A371EA
:107FFC00F0E738B515461C4600F09EF820B1082372
:10800C00E36006232560237138BD73B505460C4625
:10801C0001921E4600F090F850B9032E08D8236840
:10802C00019A5B692946204602B0BDE870401847AA
:10803C0002B070BD10B5034B03600446FFF7A6FFFA
:10804C00204610BD4C930B0010B50446FFF7F2FF11
:10805C0020460C21FCF72DF8204610BDF7B5089FE3
:10806C00974205460E4614460AD0A868026808973F
:10807C00156A31462246AC4603B0BDE8F040604775
:10808C001946019300F058F8019B0028EDD006200A
:10809C0003B0F0BD2DE9F14F0D461946DDE90A4B51
:1080AC00DDE90CA681461746984600F045F890B1DC
:1080BC00002D3460377109DB61198A450CBF06212C
:1080CC000121B171002001B0BDE8F08F0235F9D16A
:1080DC000123B371F6E7544506D15946484600F0E2
:1080EC002BF808B17771EDE7D9F808000368CDE9F2
:1080FC000CA6CDE90A4BDC693A4643462946A44610
:10810C0001B0BDE8F04F60472DE9F04107460C4641
:10811C0015461E46FFF76DFF48B9B86803689F699E
:10812C002A4633462146BC46BDE8F0416047BDE8CF
:10813C00F081704700207047814208B50ED040682E
:10814C0003782A2B0CD049680B782A2B08BF0131F5
:10815C00FBF75EFFB0FA80F0400908BD0120FCE798
:10816C000020FAE7002301461A46184600F08EB8A4
:10817C0010B501390244904201D1002005E003788A
:10818C0011F8014FA34201D0181B10BD0130F2E7CA
:10819C000A44914200F1FF3300D1704710B511F839
:1081AC00014B03F8014F9142F9D110BD884210B533
:1081BC0001EB020402D98442234607D8431EA14294
:1081CC0008D011F8012B03F8012FF8E702440146FF
:1081DC008A4200D110BD13F8014D02F8014DF7E7AA
:1081EC0002440346934200D1704703F8011BF9E7A0
:1081FC0038B5104B1D68AB6B0446B3B91820FDF7AE
:10820C0079FD0246A86320B90B4B0C484221FDF7BF
:10821C0099FD0B490B4BC0E900130B4B83600B23EF
:10822C00838100210120C2E90401AB6B00221C6197
:10823C005A6138BD78E5032085930B009C930B00A5
:10824C000E33CDAB34126DE6ECDE050010B5013902
:10825C00034632B111F8014F03F8014B013A002CDF
:10826C00F7D11A440021934200D110BD03F8011B31
:10827C00F9E710B5024601448A42134603D01C7834
:10828C000132002CF8D1181A10BD00002DE9F8436A
:10829C00DFF8B8800646D8F800001F460D46914618
:1082AC0000F056F8254B1C6834B9254C1C60254B46
:1082BC0013B11B68C4F8883063681F2B07DDD8F82E
:1082CC00000000F047F84FF0FF30BDE8F8834EB3E4
:1082DC00D4F8880088B91C4B23B9D8F8000000F0FA
:1082EC0038F8F0E74FF48470FDF704FD0028F4D063
:1082FC000023C0E94033C4F88800636840F8239039
:10830C0001229A4000EB8301D0F800311343C0F8EE
:10831C000031022EC1F8807002BFD0F80431134333
:10832C00C0F804316368D8F800005A1C023362604C
:10833C0044F8235000F00EF80020C6E7E8E70320CD
:10834C005CE7032000000000015D0B00DCE503206E
:10835C007047704770470000000000000000FB34BD
:10836C009B5F8000008000100000000000000000F7
:10837C0041400B007D400B00A5400B00A9400B00B9
:10838C000000000043616C6C206F6E20707572658C
:10839C00207669727475616C0048656C6C6F20573F
:1083AC006F726C64210056696E736F6E2773204177
:1083BC0072676F6E0048656C6C6F210A003645342D
:1083CC0030303030312D423541332D463339332D59
:1083DC00453041392D4535304532344443434139DC
:1083EC00450036453430303030322D423541332D56
:1083FC00463339332D453041392D453530453234EE
:10840C0044434341394500727800364534303030AE
:10841C0030332D423541332D463339332D453041E0
:10842C00392D453530453234444343413945007488
:10843C00780064656661756C7420004D5342004C85
:10844C005342003C53504953657474696E677320F2
:10845C0064656661756C743E003C53504953657499
:10846C0074696E67732025732575202573204D4F15
:10847C00444525753E0000000000003E5B4F5B3E0E
:10848C003E6B4F6B3E1C3E7C3E1C183C7E3C181CCD
:10849C00577D571C1C5E7F5E1C00183C1800FFE7C4
:1084AC00C3E7FF0018241800FFE7DBE7FF30483A6A
:1084BC00060E2629792926407F050507407F0525CC
:1084CC003F5A3CE73C5A7F3E1C1C08081C1C3E7F54
:1084DC0014227F22145F5F005F5F06097F017F001B
:1084EC006689956A606060606094A2FFA29408043B
:1084FC007E040810207E201008082A1C08081C2A5C
:10850C0008081E101010100C1E0C1E0C30383E38B3
:10851C0030060E3E0E06000000000000005F00005A
:10852C000007000700147F147F14242A7F2A1223CB
:10853C001308646236495620500008070300001CDB
:10854C002241000041221C002A1C7F1C2A08083EE4
:10855C0008080080703000080808080800006060F7
:10856C000020100804023E5149453E00427F400065
:10857C0072494949462141494D331814127F10273D
:10858C00454545393C4A494931412111090736498C
:10859C00494936464949291E000014000000403460
:1085AC000000000814224114141414140041221465
:1085BC000802015909063E415D594E7C1211127C8C
:1085CC007F494949363E414141227F4141413E7FED
:1085DC00494949417F090909013E414151737F08CD
:1085EC0008087F00417F41002040413F017F081473
:1085FC0022417F404040407F021C027F7F040810D4
:10860C007F3E4141413E7F090909063E4151215EB1
:10861C007F09192946264949493203017F01033F45
:10862C004040403F1F2040201F3F4038403F6314D4
:10863C0008146303047804036159494D43007F41D6
:10864C0041410204081020004141417F0402010213
:10865C000440404040400003070800205454784038
:10866C007F284444383844444428384444287F38CC
:10867C005454541800087E090218A4A49C787F084E
:10868C0004047800447D40002040403D007F1028C9
:10869C00440000417F40007C047804787C0804048A
:1086AC00783844444438FC1824241818242418FC22
:1086BC007C08040408485454542404043F44243CC7
:1086CC004040207C1C2040201C3C4030403C442836
:1086DC001028444C9090907C4464544C44000836D0
:1086EC00410000007700000041360800020102043E
:1086FC00023C2623263C1EA1A161123A4040207A5E
:10870C0038545455592155557941225454784221A5
:10871C005554784020545579400C1E5272123955DC
:10872C0055555939545454593955545458000045D9
:10873C007C410002457D420001457C407D121112B6
:10874C007DF0282528F07C545545002054547C5449
:10875C007C0A097F4932494949323A4444443A3205
:10876C004A4848303A4141217A3A42402078009DAB
:10877C00A0A07D3D4242423D3D4040403D3C24FF57
:10878C002424487E4943662B2FFC2F2BFF0929F606
:10879C0020C0887E090320545479410000447D4157
:1087AC003048484A32384040227A007A0A0A727DB0
:1087BC000D19317D2629292F2826292929263048CB
:1087CC004D4020380808080808080808382F10C839
:1087DC00ACBA2F102834FA00007B000008142A14BD
:1087EC002222142A14085500550055AA55AA55AA38
:1087FC00FF55FF55FF000000FF00101010FF001484
:10880C001414FF001010FF00FF1010F010F01414DF
:10881C0014FC001414F700FF0000FF00FF1414F404
:10882C0004FC141417101F10101F101F1414141F05
:10883C0000101010F0000000001F101010101F107E
:10884C00101010F010000000FF101010101010107D
:10885C001010FF10000000FF140000FF00FF0000CC
:10886C001F10170000FC04F414141710171414F440
:10887C0004F40000FF00F714141414141414F7007B
:10888C00F7141414171410101F101F141414F414CC
:10889C001010F010F000001F101F0000001F14003B
:1088AC000000FC140000F010F01010FF10FF141466
:1088BC0014FF141010101F00000000F010FFFFFF39
:1088CC00FFFFF0F0F0F0F0FFFFFF0000000000FFF2
:1088DC00FF0F0F0F0F0F3844443844FC4A4A4A34F8
:1088EC007E02020606027E027E026355494163380F
:1088FC0044443C04407E201E2006027E020299A5C0
:10890C00E7A5991C2A492A1C4C7201724C304A4D1D
:10891C004D303048784830BC625A463D3E49494952
:10892C00007E0101017E2A2A2A2A2A44445F4444FB
:10893C0040514A444040444A51400000FF0103E08A
:10894C0080FF000008086B6B083612362436060FC1
:10895C00090F06000018180000001010003040FF2E
:10896C000101001F01011E00191D1712003C3C3CA7
:10897C003C000000000000000000000000000000AF
:10898C0000000000000000005D4B0B0039750B006F
:10899C00C5400B0063450B0065450B0097450B006C
:1089AC0073450B0085450B00A5440B0063450B007C
:1089BC008F470B008D470B00AF450B00ED450B00AF
:1089CC0027460B006D460B0089460B000D470B002C
:1089DC0000000000000000006D4C0B008D4C0B00E3
:1089EC005D4B0B0039750B00514E0B0063450B00B2
:1089FC0065450B0097450B0073450B0085450B0037
:108A0C00A5440B0063450B008F470B00EF4F0B0089
:108A1C0097550B0049550B0027460B006D460B0074
:108A2C0089460B000D470B00000000000000000001
:108A3C0051440B0025440B0027440B0000000000A0
:108A4C000001800000000000000000000380000016
:108A5C000000000000000007C00000000000000043
:108A6C00000007C00000000000000000000FC00064
:108A7C0000000000000000001FE0000000000000EB
:108A8C000000001FE00000000000000000003FE0BC
:108A9C000000000000000000003FF000000000009B
:108AAC00000000007FF0000000000000001FF87FB5
:108ABC00F0000000000000003FFE7FF0000000000E
:108ACC000000003FFF7FF0000000000000001FFFCF
:108ADC00FBE0000000000000000FFFF9FFC00000E9
:108AEC00000000000FFFF9FFF80000000000000775
:108AFC00FFF1FFFF00000000000003FC73FFFF808C
:108B0C00000000000001FE3FFFFF8000000000009D
:108B1C0000FF1E0FFF000000000000007FFE1FFC86
:108B2C00000000000000003FFFFFF8000000000004
:108B3C0000000FDFFFE0000000000000001F19FF25
:108B4C00C0000000000000003F3CFF0000000000DF
:108B5C000000007E7CF800000000000000007FFE9A
:108B6C007C0000000000000000FFFFFC0000000083
:108B7C0000000000FFFFFE0000000000000000FFEE
:108B8C00FFFE0000000000000001FFEFFE000000EF
:108B9C000000000001FFCFFE0000000000000003F9
:108BAC00FF07FE0000000000000003FC07FE0000B1
:108BBC00000000000003F003FE00000000000000B5
:108BCC00018000FE000000000000000000007E009C
:108BDC000000000000000000003E0000000000004B
:108BEC00000000000C000000000000078000FC00EA
:108BFC000003C0000000078001FC000003C000005F
:108C0C0000078001FC000003C0000000078001E0A9
:108C1C000000001E000000078001E00000001E00A4
:108C2C007FE3F79FF9FDE7787BDFC0FFF7FFBFFD20
:108C3C00FDFF787BDFC0FFF7FFBFFDFDFF787BDF1B
:108C4C00C0F0F787BC3DE1FF787BDE00F0F787BC16
:108C5C003DE1F0787BDE0000F787803DE1E0787B3A
:108C6C00DE007FF7879FFDE1E0787BDE00FFF78772
:108C7C00BFFDE1E0787BDE00F0F787BC3DE1E078FA
:108C8C007BDE00F0F787BC3DE1E0787BDE00F0F79F
:108C9C0087BC3DE1E0787BDE00FFF7FFBFFDE1E044
:108CAC007FFBDFC0FFF7FFBFFDE1E07FFBDFC07C98
:108CBC00F3F39F3DE1E03E7BCFC0000000000000DD
:108CCC000000000000FFFFFFFFFFFFFFFFFFFFC0E2
:108CDC00FFFFFFFFFD68DB111A31C0FFFFFFFFFD37
:108CEC002B5AFB6AEFC0FFFFFFFFFD4B5B3B1A33B8
:108CFC00C0FFFFFFFFFD6B5BDB6AFDC00000600087
:108D0C0000000000000000000000000000E0000077
:108D1C00000000000000000000000001E000000066
:108D2C000000000000000000000001F00000000046
:108D3C0000000000000000000003F0000000000034
:108D4C00000000000000000007F000000000000020
:108D5C000000000000000007F80000000000000008
:108D6C000000000000000FF800000003C0007E00AF
:108D7C000001E0007F0FF800000003C000FE0000BF
:108D8C0001E000FFEFF800000003C000FE0000014E
:108D9C00E000FFFFF800000003C000F00000000F2F
:108DAC00007FFE7FC0000003C000F00000000F0039
:108DBC003FFE7FF83FF1FBCFFCFEF3BC3DEFE01F25
:108DCC00FE7FFF7FFBFFDFFEFEFFBC3DEFE01FC61B
:108DDC00FFFF7FFBFFDFFEFEFFBC3DEFE00FE3C7B5
:108DEC00FE787BC3DE1EF0FFBC3DEF0007FF87FC67
:108DFC00787BC3DE1EF0F83C3DEF0001FFFFF00076
:108E0C007BC3C01EF0F03C3DEF0001F37FE03FFB65
:108E1C00C3CFFEF0F03C3DEF0003E33F807FFBC38C
:108E2C00DFFEF0F03C3DEF0007E73C00787BC3DE53
:108E3C001EF0F03C3DEF0007FFBE00787BC3DE1E4A
:108E4C00F0F03C3DEF0007FFFE00787BC3DE1EF028
:108E5C00F03C3DEF000FFFFE007FFBFFDFFEF0F06C
:108E6C003FFDEFE00FFFFF007FFBFFDFFEF0F03F69
:108E7C00FDEFE00FF9FF003E79F9CF9EF0F01F3DBA
:108E8C00E7E01FF1FF000000000000000000000000
:108E9C00001F80FF007FFFFFFFFFFFFFFFFFFFE0D2
:108EAC001C007F007FFFFFFFFEB46D888D18E00073
:108EBC00001F007FFFFFFFFE95AD7DB577E0000042
:108ECC000F007FFFFFFFFEA5AD9D8D19E000000692
:108EDC00007FFFFFFFFEB5ADEDB57EE000000000AA
:108EEC0000000000254E0B003D4E0B005D4B0B00AF
:108EFC0039750B00514E0B0063450B0065450B009B
:108F0C0097450B0073450B0085450B00A5440B00E2
:108F1C0063450B008F470B00EF4F0B0097550B0071
:108F2C0049550B0027460B006D460B0089460B007C
:108F3C000D470B000080C0E0F0F8FCFE00010307B9
:108F4C000F1F3F7FAED580A8D300408D2000A1C855
:108F5C00DB40A4A62EAFDA02818FDA1281DA02810D
:108F6C002200FF21000000000000000000000000B3
:108F7C00CF5D0B00C55D0B00BB5D0B00B15D0B0045
:108F8C00A55D0B00995D0B00297C0B00317C0B005F
:108F9C008D5D0B00855D0B007B5D0B00715D0B0027
:108FAC00617C0B0000081018202830384173736561
:108FBC007274696F6E4661696C7572652066616C5E
:108FCC00736500776972696E672E626C6500537405
:108FDC0061727420646973636F766572696E672061
:108FEC0073657276696365732E0041737365727471
:108FFC00696F6E4661696C7572652068616C5F6241
:10900C006C655F737461636B5F696E6974286E75F0
:10901C006C6C70747229203D3D2053595354454D4E
:10902C005F4552524F525F4E4F4E45005065657230
:10903C0020646576696365206973206D6973736953
:10904C006E6721004661696C656420746F206170E5
:10905C0070656E6420706565722043656E74726114
:10906C006C206465766963652E00436F6E6E656374
:10907C0074656400446973636F6E6E6563746564D4
:10908C00004475706C696361746564206368617217
:10909C00616374657269737469632063616E6E6F6A
:1090AC00742062652061646465642E004661696C9D
:1090BC00656420746F20617070656E64206C6F63E2
:1090CC00616C206368617261637465726973746941
:1090DC00632E000000000000000000008D600B00FB
:1090EC00F1600B00D7610B001B610B0091600B0052
:1090FC00000000000000000089600B00FF600B0006
:10910C008B600B0021610B00B1600B0000000000B4
:10911C000000000087600B000D610B00C1690B00A3
:10912C0027610B00D1600B00000000000000000064
:10913C007BE327747BF815ACDD49A913000072F5AD
:10914C00FB349B5F800000800010000000000000DA
:10915C006170700025592D256D2D25645425483AD4
:10916C00254D3A2553257A0061736374696D65004A
:10917C00000000000000000025780B0015780B00A3
:10918C0017780B0000000000000000000B790B00AA
:10919C0073790B0049790B0039750B003B790B0087
:1091AC000D790B001D790B006D790B002D790B00DF
:1091BC0005790B000000000000000000057A0B0090
:1091CC00717A0B00497A0B0039750B00197A0B0078
:1091DC00357A0B00277A0B00437A0B00077A0B00C9
:1091EC000B7A0B000000000000000000A97A0B00B5
:1091FC00F37A0B00CB7A0B00AB7A0B00D37A0B0013
:10920C00DB7A0B00E37A0B00EB7A0B00000000001A
:10921C0000000000CB7B0B00C17B0B00B77B0B006D
:10922C006D7B0B00AB7B0B009F7B0B00297C0B0039
:10923C00317C0B00937B0B008B7B0B00817B0B0039
:10924C00777B0B00617C0B0000000000000000002D
:10925C00E97B0B00F37B0B00FD7B0B00077C0B0009
:10926C00117C0B001D7C0B00297C0B00317C0B004E
:10927C00397C0B00457C0B004D7C0B00577C0B00A4
:10928C00617C0B0000537431395F53705F6D616BFF
:10929C00655F7368617265645F74616700000000EC
:1092AC00EC920B0091920B004C930B00C0920B00B4
:1092BC0070930B004E31305F5F6378786162697632
:1092CC003131375F5F636C6173735F747970655FA5
:1092DC00696E666F4500000000000000B4920B0040
:1092EC00997F0B00AD7F0B0041810B0041810B007E
:1092FC0017800B00597F0B00FF7F0B00C17F0B0009
:10930C008B7F0B004C930B001C930B00B4920B0047
:10931C004E31305F5F637878616269763132305FED
:10932C005F73695F636C6173735F747970655F6998
:10933C006E666F45000000000000000010930B00EB
:10934C0041800B0055800B0041810B0041810B00CB
:10935C0017800B00597F0B0015810B00A1800B00AF
:10936C0069800B00EC920B0078930B0053743974EA
:10937C007970655F696E666F005245454E54206D7D
:10938C00616C6C6F63207375636365656465640001
:10939C002F6D6E742F776F726B73706163652F779F
:1093AC006F726B73706163652F4743432D31302DA2
:1093BC00706970656C696E652F6A656E6B696E732A
:1093CC002D4743432D31302D706970656C696E6586
:1093DC002D34385F32303230313132345F31363007
:1093EC00363138303634312F7372632F6E65776CAB
:1093FC0069622F6E65776C69622F6C6962632F737B
:10940C0074646C69622F72616E642E6300000000DC
:10941C00F5420B00D95D0B00515F0B0029750B0059
:10942C0061760B0071760B00D1760B00D57B0B00AF
:04943C00397D0B006B
:10944000040000001400000003000000474E550017
:10945000372FC88614A0D588653547BE4D1E8B446E
:04946000D5C77B8071
:109464000100000074910B007CE503200000000063
:1094740000000000000000000000000000000000E8
:1094840000000000000000000000000000000000D8
:1094940000000000000000000000000000000000C8
:1094A40000000000000000000000000000000000B8
:1094B40000000000000000000000000000000000A8
:1094C400000000000000000000000000ECE70320A2
:0494D4000000000094
:1094DE0000000102030405060708090A0B0C0D0E15
:1094EE000F101112131415161718191A1B1C1D1E06
:0494FE001F20280003
:049502007856341251
:04000003B000401CED
:00000001FF
